{
  "contractName": "CertChain",
  "abi": [
    {
      "constant": true,
      "inputs": [],
      "name": "certificate_counter",
      "outputs": [
        {
          "name": "",
          "type": "uint256"
        }
      ],
      "payable": false,
      "stateMutability": "view",
      "type": "function"
    },
    {
      "anonymous": false,
      "inputs": [
        {
          "indexed": true,
          "name": "issuer",
          "type": "address"
        },
        {
          "indexed": true,
          "name": "IPFS_hash",
          "type": "bytes"
        }
      ],
      "name": "IssuerRegistered",
      "type": "event"
    },
    {
      "anonymous": false,
      "inputs": [
        {
          "indexed": true,
          "name": "recipient",
          "type": "address"
        },
        {
          "indexed": true,
          "name": "IPFS_hash",
          "type": "bytes"
        }
      ],
      "name": "RecipientRegistered",
      "type": "event"
    },
    {
      "anonymous": false,
      "inputs": [
        {
          "indexed": true,
          "name": "issuer",
          "type": "address"
        },
        {
          "indexed": false,
          "name": "IPFS_hash",
          "type": "bytes"
        }
      ],
      "name": "CertificateRegistered",
      "type": "event"
    },
    {
      "anonymous": false,
      "inputs": [
        {
          "indexed": true,
          "name": "certificate",
          "type": "uint256"
        },
        {
          "indexed": true,
          "name": "issuer",
          "type": "address"
        },
        {
          "indexed": true,
          "name": "recipient",
          "type": "address"
        }
      ],
      "name": "CertificateIssued",
      "type": "event"
    },
    {
      "constant": false,
      "inputs": [
        {
          "name": "IPFS_hash",
          "type": "bytes"
        }
      ],
      "name": "registerIssuer",
      "outputs": [],
      "payable": false,
      "stateMutability": "nonpayable",
      "type": "function"
    },
    {
      "constant": false,
      "inputs": [
        {
          "name": "IPFS_hash",
          "type": "bytes"
        }
      ],
      "name": "registerRecipient",
      "outputs": [],
      "payable": false,
      "stateMutability": "nonpayable",
      "type": "function"
    },
    {
      "constant": false,
      "inputs": [
        {
          "name": "IPFS_hash",
          "type": "bytes"
        }
      ],
      "name": "registerCertificate",
      "outputs": [],
      "payable": false,
      "stateMutability": "nonpayable",
      "type": "function"
    },
    {
      "constant": false,
      "inputs": [
        {
          "name": "_recipient",
          "type": "address"
        },
        {
          "name": "certificate_hash",
          "type": "bytes"
        }
      ],
      "name": "issueCertificate",
      "outputs": [],
      "payable": false,
      "stateMutability": "nonpayable",
      "type": "function"
    },
    {
      "constant": true,
      "inputs": [
        {
          "name": "IPFS_hash",
          "type": "bytes"
        }
      ],
      "name": "getIssuerOfCertificate",
      "outputs": [
        {
          "name": "",
          "type": "address"
        }
      ],
      "payable": false,
      "stateMutability": "view",
      "type": "function"
    },
    {
      "constant": true,
      "inputs": [
        {
          "name": "_issuer",
          "type": "address"
        }
      ],
      "name": "getIssuer",
      "outputs": [
        {
          "name": "",
          "type": "bytes"
        }
      ],
      "payable": false,
      "stateMutability": "view",
      "type": "function"
    },
    {
      "constant": true,
      "inputs": [
        {
          "name": "_recipient",
          "type": "address"
        }
      ],
      "name": "getRecipient",
      "outputs": [
        {
          "name": "",
          "type": "bytes"
        }
      ],
      "payable": false,
      "stateMutability": "view",
      "type": "function"
    },
    {
      "constant": true,
      "inputs": [
        {
          "name": "IPFS_hash",
          "type": "bytes"
        }
      ],
      "name": "getAllRecipientOfCertificate",
      "outputs": [
        {
          "name": "",
          "type": "address[]"
        }
      ],
      "payable": false,
      "stateMutability": "view",
      "type": "function"
    },
    {
      "constant": true,
      "inputs": [
        {
          "name": "_recipient",
          "type": "address"
        }
      ],
      "name": "getRecipientCertificates",
      "outputs": [
        {
          "name": "",
          "type": "uint256[]"
        }
      ],
      "payable": false,
      "stateMutability": "view",
      "type": "function"
    },
    {
      "constant": true,
      "inputs": [
        {
          "name": "_issuer",
          "type": "address"
        }
      ],
      "name": "getIssuerCertificates",
      "outputs": [
        {
          "name": "",
          "type": "uint256[]"
        }
      ],
      "payable": false,
      "stateMutability": "view",
      "type": "function"
    },
    {
      "constant": true,
      "inputs": [
        {
          "name": "_id",
          "type": "uint256"
        }
      ],
      "name": "getCertificateIdentifier",
      "outputs": [
        {
          "name": "",
          "type": "bytes"
        },
        {
          "name": "",
          "type": "uint256"
        },
        {
          "name": "",
          "type": "address"
        },
        {
          "name": "",
          "type": "address"
        }
      ],
      "payable": false,
      "stateMutability": "view",
      "type": "function"
    }
  ],
  "bytecode": "0x608060405234801561001057600080fd5b50611ccc806100206000396000f3006080604052600436106100ba576000357c0100000000000000000000000000000000000000000000000000000000900463ffffffff16806308b5b438146100bf57806349fa85d11461016857806362812a3914610226578063632d9ce4146102e257806370b09e24146103f55780637a8ee24b146104205780637dc64450146104b8578063b771600714610521578063bc79c5f7146105b9578063c39c448d14610642578063e02dab0d146106ab578063fef03da314610714575b600080fd5b3480156100cb57600080fd5b50610126600480360381019080803590602001908201803590602001908080601f01602080910402602001604051908101604052809392919081815260200183838082843782019150505050505091929192905050506107d0565b604051808273ffffffffffffffffffffffffffffffffffffffff1673ffffffffffffffffffffffffffffffffffffffff16815260200191505060405180910390f35b34801561017457600080fd5b506101cf600480360381019080803590602001908201803590602001908080601f0160208091040260200160405190810160405280939291908181526020018383808284378201915050505050509192919290505050610865565b6040518080602001828103825283818151815260200191508051906020019060200280838360005b838110156102125780820151818401526020810190506101f7565b505050509050019250505060405180910390f35b34801561023257600080fd5b50610267600480360381019080803573ffffffffffffffffffffffffffffffffffffffff16906020019092919050505061095e565b6040518080602001828103825283818151815260200191508051906020019080838360005b838110156102a757808201518184015260208101905061028c565b50505050905090810190601f1680156102d45780820380516001836020036101000a031916815260200191505b509250505060405180910390f35b3480156102ee57600080fd5b5061030d60048036038101908080359060200190929190505050610a3f565b60405180806020018581526020018473ffffffffffffffffffffffffffffffffffffffff1673ffffffffffffffffffffffffffffffffffffffff1681526020018373ffffffffffffffffffffffffffffffffffffffff1673ffffffffffffffffffffffffffffffffffffffff168152602001828103825286818151815260200191508051906020019080838360005b838110156103b757808201518184015260208101905061039c565b50505050905090810190601f1680156103e45780820380516001836020036101000a031916815260200191505b509550505050505060405180910390f35b34801561040157600080fd5b5061040a610bee565b6040518082815260200191505060405180910390f35b34801561042c57600080fd5b50610461600480360381019080803573ffffffffffffffffffffffffffffffffffffffff169060200190929190505050610bf4565b6040518080602001828103825283818151815260200191508051906020019060200280838360005b838110156104a4578082015181840152602081019050610489565b505050509050019250505060405180910390f35b3480156104c457600080fd5b5061051f600480360381019080803590602001908201803590602001908080601f0160208091040260200160405190810160405280939291908181526020018383808284378201915050505050509192919290505050610c8b565b005b34801561052d57600080fd5b50610562600480360381019080803573ffffffffffffffffffffffffffffffffffffffff169060200190929190505050610ea8565b6040518080602001828103825283818151815260200191508051906020019060200280838360005b838110156105a557808201518184015260208101905061058a565b505050509050019250505060405180910390f35b3480156105c557600080fd5b50610640600480360381019080803573ffffffffffffffffffffffffffffffffffffffff169060200190929190803590602001908201803590602001908080601f0160208091040260200160405190810160405280939291908181526020018383808284378201915050505050509192919290505050610f3f565b005b34801561064e57600080fd5b506106a9600480360381019080803590602001908201803590602001908080601f01602080910402602001604051908101604052809392919081815260200183838082843782019150505050505091929192905050506115da565b005b3480156106b757600080fd5b50610712600480360381019080803590602001908201803590602001908080601f01602080910402602001604051908101604052809392919081815260200183838082843782019150505050505091929192905050506117f7565b005b34801561072057600080fd5b50610755600480360381019080803573ffffffffffffffffffffffffffffffffffffffff169060200190929190505050611a45565b6040518080602001828103825283818151815260200191508051906020019080838360005b8381101561079557808201518184015260208101905061077a565b50505050905090810190601f1680156107c25780820380516001836020036101000a031916815260200191505b509250505060405180910390f35b60006001826040518082805190602001908083835b60208310151561080a57805182526020820191506020810190506020830392506107e5565b6001836020036101000a038019825116818451168082178552505050505050905001915050908152602001604051809103902060009054906101000a900473ffffffffffffffffffffffffffffffffffffffff169050919050565b60606004826040518082805190602001908083835b60208310151561089f578051825260208201915060208101905060208303925061087a565b6001836020036101000a038019825116818451168082178552505050505050905001915050908152602001604051809103902080548060200260200160405190810160405280929190818152602001828054801561095257602002820191906000526020600020905b8160009054906101000a900473ffffffffffffffffffffffffffffffffffffffff1673ffffffffffffffffffffffffffffffffffffffff1681526020019060010190808311610908575b50505050509050919050565b6060600360008373ffffffffffffffffffffffffffffffffffffffff1673ffffffffffffffffffffffffffffffffffffffff1681526020019081526020016000208054600181600116156101000203166002900480601f016020809104026020016040519081016040528092919081815260200182805460018160011615610100020316600290048015610a335780601f10610a0857610100808354040283529160200191610a33565b820191906000526020600020905b815481529060010190602001808311610a1657829003601f168201915b50505050509050919050565b60606000806000610a4e611b26565b6005600087815260200190815260200160002060806040519081016040529081600082018054600181600116156101000203166002900480601f016020809104026020016040519081016040528092919081815260200182805460018160011615610100020316600290048015610b065780601f10610adb57610100808354040283529160200191610b06565b820191906000526020600020905b815481529060010190602001808311610ae957829003601f168201915b50505050508152602001600182015481526020016002820160009054906101000a900473ffffffffffffffffffffffffffffffffffffffff1673ffffffffffffffffffffffffffffffffffffffff1673ffffffffffffffffffffffffffffffffffffffff1681526020016003820160009054906101000a900473ffffffffffffffffffffffffffffffffffffffff1673ffffffffffffffffffffffffffffffffffffffff1673ffffffffffffffffffffffffffffffffffffffff1681525050905080600001518160200151826040015183606001518393509450945094509450509193509193565b60005481565b6060600760008373ffffffffffffffffffffffffffffffffffffffff1673ffffffffffffffffffffffffffffffffffffffff168152602001908152602001600020805480602002602001604051908101604052809291908181526020018280548015610c7f57602002820191906000526020600020905b815481526020019060010190808311610c6b575b50505050509050919050565b60001515600960003373ffffffffffffffffffffffffffffffffffffffff1673ffffffffffffffffffffffffffffffffffffffff16815260200190815260200160002060009054906101000a900460ff161515141515610d53576040517f08c379a000000000000000000000000000000000000000000000000000000000815260040180806020018281038252601c8152602001807f526563697069656e7420616c726561647920726567697374657265640000000081525060200191505060405180910390fd5b80600360003373ffffffffffffffffffffffffffffffffffffffff1673ffffffffffffffffffffffffffffffffffffffff1681526020019081526020016000209080519060200190610da6929190611b7b565b506001600960003373ffffffffffffffffffffffffffffffffffffffff1673ffffffffffffffffffffffffffffffffffffffff16815260200190815260200160002060006101000a81548160ff021916908315150217905550806040518082805190602001908083835b602083101515610e355780518252602082019150602081019050602083039250610e10565b6001836020036101000a03801982511681845116808217855250505050505090500191505060405180910390203373ffffffffffffffffffffffffffffffffffffffff167ffacd34322c651c99d2877a62d879a1bb32b1502317c0673f135ec47f15a2f10960405160405180910390a350565b6060600660008373ffffffffffffffffffffffffffffffffffffffff1673ffffffffffffffffffffffffffffffffffffffff168152602001908152602001600020805480602002602001604051908101604052809291908181526020018280548015610f3357602002820191906000526020600020905b815481526020019060010190808311610f1f575b50505050509050919050565b610f47611b26565b600060011515600860003373ffffffffffffffffffffffffffffffffffffffff1673ffffffffffffffffffffffffffffffffffffffff16815260200190815260200160002060009054906101000a900460ff161515141515611037576040517f08c379a000000000000000000000000000000000000000000000000000000000815260040180806020018281038252602f8152602001807f497373756572206e6f74207265676973746572656420746f207265676973746581526020017f722061206365727469666963617465000000000000000000000000000000000081525060400191505060405180910390fd5b60011515600960008673ffffffffffffffffffffffffffffffffffffffff1673ffffffffffffffffffffffffffffffffffffffff16815260200190815260200160002060009054906101000a900460ff161515141515611125576040517f08c379a00000000000000000000000000000000000000000000000000000000081526004018080602001828103825260338152602001807f526563697069656e74206e6f74207265676973746572656420746f206265206981526020017f737375656420612063657274696669636174650000000000000000000000000081525060400191505060405180910390fd5b3373ffffffffffffffffffffffffffffffffffffffff166001846040518082805190602001908083835b602083101515611174578051825260208201915060208101905060208303925061114f565b6001836020036101000a038019825116818451168082178552505050505050905001915050908152602001604051809103902060009054906101000a900473ffffffffffffffffffffffffffffffffffffffff1673ffffffffffffffffffffffffffffffffffffffff16141515611279576040517f08c379a000000000000000000000000000000000000000000000000000000000815260040180806020018281038252602f8152602001807f497373756572206e6f74207265676973746572656420746f206973737565207481526020017f686973206365727469666963617465000000000000000000000000000000000081525060400191505060405180910390fd5b600080815460010191905081905590508282600001819052504282602001818152505033826040019073ffffffffffffffffffffffffffffffffffffffff16908173ffffffffffffffffffffffffffffffffffffffff168152505083826060019073ffffffffffffffffffffffffffffffffffffffff16908173ffffffffffffffffffffffffffffffffffffffff16815250508160056000838152602001908152602001600020600082015181600001908051906020019061133c929190611bfb565b506020820151816001015560408201518160020160006101000a81548173ffffffffffffffffffffffffffffffffffffffff021916908373ffffffffffffffffffffffffffffffffffffffff16021790555060608201518160030160006101000a81548173ffffffffffffffffffffffffffffffffffffffff021916908373ffffffffffffffffffffffffffffffffffffffff160217905550905050600660008573ffffffffffffffffffffffffffffffffffffffff1673ffffffffffffffffffffffffffffffffffffffff168152602001908152602001600020819080600181540180825580915050906001820390600052602060002001600090919290919091505550600760003373ffffffffffffffffffffffffffffffffffffffff1673ffffffffffffffffffffffffffffffffffffffff1681526020019081526020016000208190806001815401808255809150509060018203906000526020600020016000909192909190915055506004836040518082805190602001908083835b6020831015156114e257805182526020820191506020810190506020830392506114bd565b6001836020036101000a03801982511681845116808217855250505050505090500191505090815260200160405180910390208490806001815401808255809150509060018203906000526020600020016000909192909190916101000a81548173ffffffffffffffffffffffffffffffffffffffff021916908373ffffffffffffffffffffffffffffffffffffffff160217905550508373ffffffffffffffffffffffffffffffffffffffff163373ffffffffffffffffffffffffffffffffffffffff16827fb16be250054d8205b809d26284c657602bbfc725cfc68daca4dc60a78ff137a760405160405180910390a450505050565b60001515600860003373ffffffffffffffffffffffffffffffffffffffff1673ffffffffffffffffffffffffffffffffffffffff16815260200190815260200160002060009054906101000a900460ff1615151415156116a2576040517f08c379a00000000000000000000000000000000000000000000000000000000081526004018080602001828103825260198152602001807f49737375657220616c726561647920726567697374657265640000000000000081525060200191505060405180910390fd5b80600260003373ffffffffffffffffffffffffffffffffffffffff1673ffffffffffffffffffffffffffffffffffffffff16815260200190815260200160002090805190602001906116f5929190611b7b565b506001600860003373ffffffffffffffffffffffffffffffffffffffff1673ffffffffffffffffffffffffffffffffffffffff16815260200190815260200160002060006101000a81548160ff021916908315150217905550806040518082805190602001908083835b602083101515611784578051825260208201915060208101905060208303925061175f565b6001836020036101000a03801982511681845116808217855250505050505090500191505060405180910390203373ffffffffffffffffffffffffffffffffffffffff167f64ccd7ae4840e4423e19ab1425bf26c318b7fe53f1a0f09d3cb3c352c6af183660405160405180910390a350565b60011515600860003373ffffffffffffffffffffffffffffffffffffffff1673ffffffffffffffffffffffffffffffffffffffff16815260200190815260200160002060009054906101000a900460ff1615151415156118e5576040517f08c379a000000000000000000000000000000000000000000000000000000000815260040180806020018281038252602f8152602001807f497373756572206e6f74207265676973746572656420746f207265676973746581526020017f722061206365727469666963617465000000000000000000000000000000000081525060400191505060405180910390fd5b336001826040518082805190602001908083835b60208310151561191e57805182526020820191506020810190506020830392506118f9565b6001836020036101000a038019825116818451168082178552505050505050905001915050908152602001604051809103902060006101000a81548173ffffffffffffffffffffffffffffffffffffffff021916908373ffffffffffffffffffffffffffffffffffffffff1602179055503373ffffffffffffffffffffffffffffffffffffffff167f79ca3cd5e0cc8609af878b60df50b410faabf57ff12cd4ed3e5a08ae4c39cdc9826040518080602001828103825283818151815260200191508051906020019080838360005b83811015611a085780820151818401526020810190506119ed565b50505050905090810190601f168015611a355780820380516001836020036101000a031916815260200191505b509250505060405180910390a250565b6060600260008373ffffffffffffffffffffffffffffffffffffffff1673ffffffffffffffffffffffffffffffffffffffff1681526020019081526020016000208054600181600116156101000203166002900480601f016020809104026020016040519081016040528092919081815260200182805460018160011615610100020316600290048015611b1a5780601f10611aef57610100808354040283529160200191611b1a565b820191906000526020600020905b815481529060010190602001808311611afd57829003601f168201915b50505050509050919050565b6080604051908101604052806060815260200160008152602001600073ffffffffffffffffffffffffffffffffffffffff168152602001600073ffffffffffffffffffffffffffffffffffffffff1681525090565b828054600181600116156101000203166002900490600052602060002090601f016020900481019282601f10611bbc57805160ff1916838001178555611bea565b82800160010185558215611bea579182015b82811115611be9578251825591602001919060010190611bce565b5b509050611bf79190611c7b565b5090565b828054600181600116156101000203166002900490600052602060002090601f016020900481019282601f10611c3c57805160ff1916838001178555611c6a565b82800160010185558215611c6a579182015b82811115611c69578251825591602001919060010190611c4e565b5b509050611c779190611c7b565b5090565b611c9d91905b80821115611c99576000816000905550600101611c81565b5090565b905600a165627a7a72305820a2006670825bfde9e6531267f257bb5874835cc82cee332d6f7a19513efa6b320029",
  "source": "pragma solidity 0.4.23;\n\ncontract CertChain {\n    uint public certificate_counter;\n\n    // Structs\n    struct Certificate {\n        bytes ipfsHash;\n        uint timeOfIssue;\n        address issuer;\n        address recipient;\n    }\n\n    // Mappings\n    mapping(bytes => address) issuerOfCertificate;\n    mapping(address => bytes) issuer;\n    mapping(address => bytes) recipient;\n    mapping(bytes => address[]) allRecipientOfCertificate;\n    mapping(uint=>Certificate) certificateIdentifier;\n    mapping(address => uint[]) recipientCertificates;\n    mapping(address => uint[]) issuerCertificates;\n    mapping(address => bool) isIssuer;\n    mapping(address => bool) isRecipient;\n\n    // Events\n    event IssuerRegistered(address indexed issuer, bytes indexed IPFS_hash);\n    event RecipientRegistered(address indexed recipient, bytes indexed IPFS_hash);\n    event CertificateRegistered(address indexed issuer, bytes IPFS_hash);\n    event CertificateIssued(uint indexed certificate, address indexed issuer, address indexed recipient);\n\n    // Functions\n    function registerIssuer(bytes IPFS_hash) public {\n        require((isIssuer[msg.sender] == false), \"Issuer already registered\");\n        issuer[msg.sender] = IPFS_hash;\n        isIssuer[msg.sender] = true;\n        emit IssuerRegistered(msg.sender, IPFS_hash);\n    }\n\n    function registerRecipient(bytes IPFS_hash) public {\n        require(isRecipient[msg.sender] == false, \"Recipient already registered\");\n        recipient[msg.sender] = IPFS_hash;\n        isRecipient[msg.sender] = true;\n        emit RecipientRegistered(msg.sender, IPFS_hash);\n    }\n\n    function registerCertificate(bytes IPFS_hash) public {\n        require(isIssuer[msg.sender] == true, \"Issuer not registered to register a certificate\");\n        issuerOfCertificate[IPFS_hash] = msg.sender;\n        emit CertificateRegistered(msg.sender, IPFS_hash);\n    }\n\n    function issueCertificate(address _recipient, bytes certificate_hash) public {\n        require(isIssuer[msg.sender] == true, \"Issuer not registered to register a certificate\");\n        require(isRecipient[_recipient] == true, \"Recipient not registered to be issued a certificate\");\n        require(issuerOfCertificate[certificate_hash] == msg.sender, \"Issuer not registered to issue this certificate\");\n        Certificate memory cert;\n        uint id = ++certificate_counter;\n        cert.ipfsHash = certificate_hash;\n        cert.timeOfIssue = now;\n        cert.issuer = msg.sender;\n        cert.recipient = _recipient;\n        certificateIdentifier[id] = cert;\n        recipientCertificates[_recipient].push(id);\n        issuerCertificates[msg.sender].push(id);\n        allRecipientOfCertificate[certificate_hash].push(_recipient);\n        emit CertificateIssued(id, msg.sender, _recipient);\n    }\n\n    function getIssuerOfCertificate(bytes IPFS_hash) public view returns (address) {\n        return issuerOfCertificate[IPFS_hash];\n    }\n\n    function getIssuer(address _issuer) public view returns (bytes) {\n        return issuer[_issuer];\n    }\n\n    function getRecipient(address _recipient) public view returns (bytes) {\n        return recipient[_recipient];\n    }\n\n    function getAllRecipientOfCertificate(bytes IPFS_hash) public view returns (address[]) {\n        return allRecipientOfCertificate[IPFS_hash];\n    }\n\n    function getRecipientCertificates(address _recipient) public view returns (uint[]) {\n        return recipientCertificates[_recipient];\n    }\n\n    function getIssuerCertificates(address _issuer) public view returns (uint[]) {\n        return issuerCertificates[_issuer];\n    }\n\n    function getCertificateIdentifier(uint _id) public view returns (bytes, uint, address, address){\n        Certificate memory cert = certificateIdentifier[_id];\n        return (cert.ipfsHash, cert.timeOfIssue, cert.issuer, cert.recipient);\n    }\n\n}",
  "sourcePath": "/Users/sacros/code/cert-chain/contracts/CertChain.sol",
  "compiler": {
    "name": "solc",
    "version": "0.4.23+commit.124ca40d.Emscripten.clang"
  },
  "schemaVersion": "2.0.0",
  "updatedAt": "2018-05-27T19:59:26.441Z"
}